:020000041000EA
:1000000000B5324B212058609868022188439860DF
:10001000D860186158612E4B002199600221596106
:100020000121F02299502B49196001219960352056
:1000300000F044F80222904214D00621196600F024
:1000400034F8196E01211966002018661A6600F04E
:100050002CF8196E196E196E052000F02FF8012189
:100060000842F9D1002199601B49196000215960AB
:100070001A491B48016001219960EB211966A021F2
:10008000196600F012F800219960164914480160C1
:100090000121996001BC002800D000471248134993
:1000A000086003C880F30888084703B5996A0420EC
:1000B0000142FBD001200142F8D103BD02B5186610
:1000C0001866FFF7F2FF186E186E02BD00000240BE
:1000D000000000180000070000035F00212200005C
:1000E000F4000018222000A00001001008ED00E03C
:1000F00000000000000000000000000074B24E7A12
:1001000000200420F7010010C3010010C5010010F9
:10011000C1010010C1010010C1010010C101001097
:10012000C1010010C1010010C1010010C701001081
:10013000C1010010C1010010C9010010CB01001065
:10014000CD010010CD010010CD010010CD01001037
:10015000CD010010CD010010CD010010CD01001027
:10016000CD010010CD010010CD010010CD01001017
:10017000CD010010CD010010CD010010CD01001007
:10018000CD010010CD010010CD010010CD010010F7
:10019000CD010010CD010010CD010010CD010010E7
:1001A000CD010010CD010010CD010010CD010010D7
:1001B000CD010010CD010010CD010010CD010010C7
:1001C00000BE00BE00BE00BE00BE00BE00F04BF888
:1001D000103800BEF2EB88714846021074460210D7
:1001E0003402001090A31AE700202149086006C8D5
:1001F00081F3088810471F48006800282FD10DA4FC
:100200000ECC002902D000F012F8F9E71A491B4A77
:10021000002000E001C19142FCD1194988471949E9
:1002200088471949884700BEFDE701C901C29A42C3
:10023000FBD3704774460210C0000020481600200F
:100240000C5C021000000420000004200C5C021072
:1002500000100420001004200000000070470B482C
:1002600007F01CFD0047EFF30580C0B270470000A7
:1002700008ED00E0000000D058160020882600207D
:10028000A95F0010410C0010D1600010575600000B
:1002900006005250ABB36053841702100600525050
:1002A000861C030294170210060052505422A29D8D
:1002B000A817021005005250DE65F4680C5C0210AD
:1002C000F8B5C0460448054B10B5834203D0044B33
:1002D000002B00D0984710BD48160020481600207B
:1002E0000000000006480749091A8910CB0F591869
:1002F00010B5491003D0044B002B00D0984710BD17
:1003000048160020481600200000000010B5074CD9
:100310002378002B09D1FFF7D5FF054B002B02D026
:10032000044800E000BF0123237010BD70170020B7
:100330000000000090ED0110054B10B5002B03D01C
:100340000449054800E000BFFFF7CCFF10BDC046E0
:10035000000000007417002090ED01100022014BF6
:100360001A707047B323002070B5064C064D260066
:10037000FC36216828000C3408F060FFB442F8D144
:1003800070BDC046A0EE011030F0011001220B4BF1
:1003900010B51A7005F02CF90023094A12184B41C8
:1003A000994206D803D007490A604B6010BD9042BD
:1003B000F9D901225242D317F5E7C046B3230020F2
:1003C00040420F0058160020802230B5104C01002A
:1003D000A5445200050068461BF0C0FC802140AADD
:1003E0004900684618F0A8F8041E03D189239B0031
:1003F0009D4430BD2900074808F020FF200018F078
:100400008FF8230002000449044808F017FFEDE7C5
:10041000DCFDFFFF98EF011080F00110BCEF011030
:1004200010B5024802F0FEF910BDC04690ED011073
:1004300010B5044C200013F04DFA200001F0AAFE84
:1004400010BDC04690ED011010B5094C2000FFF71B
:10045000BBFF200013F03EFA200001F09BFE2000BD
:1004600002F0E0F9002008F0FBFE431CEED010BDC6
:1004700090ED011010B5064900201BF01FFD00286B
:1004800002D0FFF7A1FF10BD024808F0E5FDFAE732
:1004900050FC011040EE011010B50B4900201BF07C
:1004A0000DFD00280CD013F015FA041E00D110BD6C
:1004B00018F036F822000100044808F0BFFEF6E705
:1004C000034808F0C9FDF2E750FC011038F00110B4
:1004D00040EE011070B5124C002021001BF0EEFC24
:1004E000051E18D0210000201BF0E8FC002812D0C7
:1004F000002100221BF09EFE2100060000201BF0C0
:10050000DDFC002807D018F0C9FE310002002800E9
:1005100001F04EFC70BD034808F09EFDFAE7C046AE
:1005200050FC011040EE011010B5194C1949A544BA
:1005300000201BF0C3FC002826D00100012240A8A7
:100540000FF046FF041E16D1134C03E0694620004D
:1005500008F074FE802140AA4900684615F000FDAD
:100560000028F3D140A811F03DFB041E03D1D8238D
:100570009B009D4410BD200017F0D2FF2200010017
:10058000064808F05BFEF2E7054808F065FDEEE777
:10059000A0FCFFFF50FC011094EF0110B0310210DD
:1005A00040EE011010B50B4900201BF087FC00281D
:1005B0000CD011F06DFB041E00D110BD17F0B0FF80
:1005C00022000100044808F039FEF6E7034808F06D
:1005D00043FDF2E750FC011038F0011040EE01102D
:1005E00010B50B4900201BF069FC00280CD011F05D
:1005F00031FB041E00D110BD17F092FF2200010054
:10060000044808F01BFEF6E700F016FC0068EEE771
:1006100050FC011098ED011010B5084900201BF0A6
:100620004DFC0023002804D0002200211BF002FE14
:100630000300180001F084FB10BDC04650FC0110FF
:1006400010B5A2B08022002102A808F049FB0020CA
:1006500018F0FEFB00900191684619F0F3F90F4A7B
:1006600004000300802102A81BF066FB00280ED0C6
:1006700002A808F0F1FC2300094A802102A81BF01F
:100680005BFB02A9074808F0D9FD22B010BD064B5C
:10069000064A7321064818F0C5FBE9E7D0EF0110C0
:1006A00018F001101CF00110B04002108CF0011085
:1006B000D4EF0110F0B5CE46474680B5294C83B043
:1006C000210000201BF0FAFB002842D018F0E6FDC4
:1006D0002100060000201BF0F1FB002839D018F0A3
:1006E000DDFD2100070000201BF0E8FB002830D0D2
:1006F00018F0D4FD2100050000201BF0DFFB0028CE
:1007000027D018F0CBFD2100804600201BF0D6FB3F
:1007100000281ED018F0C2FD2100814600201BF0E9
:10072000CDFB002815D018F0B9FD6A460023938050
:10073000FA23DB009C4665446B4615809770D670A3
:1007400042465A714A46D87168469A7118F014FDAB
:1007500002E0054808F080FC03B00CBC90469946C6
:10076000F0BDC04650FC011040EE0110F8B55746F0
:100770004E46DE464546E0B5254F06003B78002B49
:100780001BD101333B70A8239B009846214B0024CA
:100790009946214B9A4600F04DFBA0420BD9200010
:1007A00000F04AFB036905009E420CD0013400F0C2
:1007B00041FBA042F3D800233B703CBC90469946D5
:1007C000A246AB46F8BD4346C35C002B08D10123CB
:1007D000EA6928001343EB6117F088F90134E6E772
:1007E0000168484618F0F8FA0022296800200FF046
:1007F00009FD8346002802D14346E854E7E717F095
:100800008FFE5A460100504608F018FDDFE7C0464B
:10081000B423002054EE01107CEE011070B5334972
:1008200000201BF04BFB041E5AD0002509E02800D5
:1008300000F002FB210000681AF096FA00280ED0A2
:10084000013500F0F7FAA842F1D8220028492948DA
:1008500018F0C2FA2100284808F0F0FC70BD28000A
:1008600000F0EAFA3830F5D00022210000200FF025
:10087000C9FC0025061E0AD01DE0280000F0DCFAA5
:10088000210000681AF070FA061E1CD0013500F035
:10089000D1FAA842F1D822001849164818F09CFA5B
:1008A000174B184AA521184818F0BCFAA8230022B3
:1008B0009B001A70FFDE17F033FE32000100134870
:1008C00008F0BCFCCAE7280000F0B6FA0028E7D020
:1008D000A8239B00C6540123C2691343C361BDE72B
:1008E000002000F0A9FA04689FE7C04650FC011000
:1008F0006CF0011000EE011018EE01105CF0011018
:100900003CEE011050F00110D4EF01107CEE01100C
:1009100070B51D4900201BF0D1FA051E2FD0002410
:1009200009E0200000F088FA290000681AF01CFA9B
:1009300000280ED0013400F07DFAA042F1D82A0040
:100940001249134818F048FA2900124808F076FCBA
:1009500070BD200000F070FA3830F5D080230022FE
:10096000DB000021280013F017FB041EF0D017F065
:10097000D7FD22000100084808F060FCE8E70020ED
:1009800000F05AFA0568CAE750FC01106CF001103B
:1009900000EE011018EE011038F0011070B5314969
:1009A00000201BF08BFA041E57D0002509E0280018
:1009B00000F042FA210000681AF0D6F900280ED0A3
:1009C000013500F037FAA842F1D82200264927481D
:1009D00018F002FA2100264808F030FC70BD28000B
:1009E00000F02AFA38300028F4D0012221000FF05C
:1009F00009FC0025061E0AD01DE0280000F01CFAA4
:100A0000210000681AF0B0F900281CD0013500F070
:100A100011FAA842F1D822001649144818F0DCF95E
:100A2000154B164A9421164818F0FCF9A823002209
:100A30009B001A70FFDE17F073FD320001001148B1
:100A400008F0FCFBCAE7280000F0F6F90028E7D020
:100A5000A82301229B00C254C0E7002000F0ECF95B
:100A60000468A2E750FC01106CF0011000EE0110C8
:100A700018EE01105CF001103CEE011098F001102E
:100A8000D4EF011098ED011030B5264983B0002055
:100A90001BF014FA051E3FD0002409E0200000F0EE
:100AA000CBF9290000681AF05FF9002811D0013451
:100AB00000F0C0F9A042F1D82A001B491B4818F0E9
:100AC0008BF9002301932900194808F0B7FB03B004
:100AD00030BD200000F0B0F9383001900028F2D08D
:100AE00001AA6946280012F08BFB041E0CD1019B61
:100AF000009A5989DB6A4A43023B59435208490824
:100B00000C4808F09BFBE2E717F00AFD2200010009
:100B1000094808F093FBDAE7002000F08DF905683A
:100B2000BAE7C04650FC01106CF0011000EE011055
:100B300018EE0110CCED0110B0ED0110F0B505007C
:100B40002E4CFF22A544002118A808F0C9F82B78E4
:100B5000002B06D1FF2118A811F01EF918AD041EB4
:100B60003CD12900264808F069FB5822002102A840
:100B700008F0B6F8902258AC52000021200008F08E
:100B8000AFF82A001F4B210002A812F06BF8051ED7
:100B90002CD11D4D1D4E1E4FA37E002B17D0237B45
:100BA0002A00D90603D43200DB0700D43A002068BB
:100BB000616800900191BD2149006944154808F021
:100BC0003DFB210002A811F0D3FF0028E4D002A8C9
:100BD00011F054FFA1239B009D44F0BD17F0A0FC31
:100BE000220001000C4808F029FBF3E717F098FCFD
:100BF0002A000100094808F021FBEBE77CFDFFFF1C
:100C0000E0F001101C0002107C350210A4F001106D
:100C1000B4F0011014F10110C4F00110F8F001104B
:100C200010B5054900201BF049F9002802D0FFF754
:100C300085FF10BD0148FAE750FC011034F00110A7
:100C4000F8B5DE46454657464E46E0B508F002FB8D
:100C500018F042F918F006FB664808F0EFFA66480B
:100C600008F0ECFA002408F089FA644D00F0E2F88C
:100C7000A0420AD9200000F0DFF8037B002B50D1FE
:100C8000013400F0D7F8A042F4D85D4B5D4C994692
:100C90005D4B5E4E98465E4D2378002B28D1002098
:100CA00008F0DEFA0700431CF6D018F0BBFE00285F
:100CB0003FD1380018F0BEFE00283AD10D2F00D1E8
:100CC00080E0082F01D07F2FE6D1380008F072F9BC
:100CD00008F054FA2B68082F6BD07F2F69D0FE2BB9
:100CE000DAD84A46D75401332B602378002BD6D06C
:100CF00004F07EFC32687368121A8B41002BCEDA46
:100D000000F0B4F8002800D120700023306871682A
:100D1000404A12184B41994262D85FD032607360EA
:100D2000BDE700692B0001220C2103F01FFD0134F7
:100D3000A7E7380008F03EF908F020FA0D2FC9D1D6
:100D40000A2008F037F908F019FA802148464900CE
:100D50001BF09EF800283BD02F4948461BF0AEF808
:100D60008346002817D00027BA46474606E00123ED
:100D70009C46E24453460C37152B35D0594638680B
:100D800019F0F2FF0028F2D157467B00DF19BF00AF
:100D900047447B6898478022002352000021484640
:100DA0002B6007F09DFF144808F048FA08F0E6F9B8
:100DB00072E7002B00D16FE700224946013B2B6010
:100DC000CA5469E70D2008F0F5F808F0D7F9B7E73D
:100DD000124808F033FA08F0D1F95DE790429DD946
:100DE00001225242D31799E759460D4808F026FAD6
:100DF000D1E7C0462CF1011034F101106D0700104D
:100E0000F4180020B323002098EE0110581600209B
:100E1000F018002040420F0050FC011038F1011082
:100E20003CF1011010B502481DF082FF10BDC04614
:100E3000D80A002001207047012807D8830018181D
:100E40000301C018024BC000C01870470020FCE727
:100E50003008002001207047012803D8024B800190
:100E6000181870470020FCE7D80A0020F0B57B4C2A
:100E70000020A54417F0ECFF0490059107A904A8F1
:100E800018F0EAFD764B10AC1A68200010929B888F
:100E90000826A38012F01EFD0300B343DBB2050059
:100EA000002B0BD017F03CFB2A0001006D4808F026
:100EB000C5F90020C9239B009D44F0BD6A4A0C9BE4
:100EC000944602AD63443D20AC460A9A3B21019210
:100ED0000B9A6044029201320092644A06F08CFE42
:100EE000451D200012F0F6FC0300B343DBB20700FF
:100EF000002B08D017F014FB3A000100594808F005
:100F00009DF90020D6E740216019491B07AB584ADC
:100F10001AF012FF002879D03222210030A80FF0F9
:100F200057FAF7230500184209D017F0F9FA2B00F9
:100F3000020021004F4808F081F90020BAE7349AF6
:100F4000359B30A80292039311F074F8051E7BD1F3
:100F50003F9A3E9B029213436BD0002017F078FF1C
:100F60000490059107A904A818F076FD424A0300F1
:100F7000802120001AF0E0FE051E4ED080233F4A5B
:100F8000DB0111684B40E021C9010B403C490B607B
:100F900004213C4B1960FC3113680B42FCD05068B3
:100FA00080260004000C07F0DDFD374907F0D3FD73
:100FB000364907F0B6FD364907F0B9FD011C354842
:100FC00007F0AFFD07F0F0FD761B65190090019169
:100FD000314A3100280006F00FFE22002F4930A8C8
:100FE00015F098F800281FDB30A810F0FBFD040076
:100FF0000120002C00D15DE7200017F091FA2200BB
:101000000100274808F01AF9002053E7254B264A2B
:101010004C21264817F006FF7EE7254B254A65211F
:10102000224817F0FFFEA9E7234808F015F8002032
:1010300040E7224930A815F06DF800288DDA2048E5
:1010400008F00AF8002035E717F06AFA2A000100D4
:101050001C4808F0F3F800202CE7C046DCFCFFFF3A
:1010600088F9011090F901106C070000A8F901102F
:10107000B8F9011004FA011050FA011000C0044040
:1010800000D0044000E004403333533A6ABC343F9C
:101090002D93E13A0000D8417802021094EF01103C
:1010A00068FA0110C0F901106CF90110C4F90110BF
:1010B000B040021078F9011058FA011020FA01101E
:1010C00040FA0110CC310210F0B5DE4657464E46CC
:1010D0004546E0B5D54CD648A54407F0BDFFF32200
:1010E000002107A807F0FCFDF32107A810F054FE2B
:1010F000041E00D07EE1CF4808F0A0F8CE4B0322BA
:10110000190084A89B460FF063F9041E3FD1CB4819
:1011100007F0A2FFCA4B99461B68986818F0D0F9EF
:10112000C84B00249846C84B44AD9A461EE00A229C
:1011300006A928001AF0BEFF069B0600AB4211D09C
:101140001B78002B01D00A2B0CD1FB173A0084A886
:1011500010F070FF721C514684A814F0DBFF84A8C5
:1011600010F0CAFB01340A2C00D184E00A222100CD
:10117000404608F063F884AA0A212800929F14F0E0
:10118000EFFE0028D3D1B14807F066FFCFE7B04F9C
:10119000380007F061FFAA4B99461B68986818F061
:1011A0008FF9042C00D07DE1AA4808F047F84B469F
:1011B0001B68986818F084F90B22594684A80FF030
:1011C00007F98046002800D083E19C4807F044FFDF
:1011D0004B461B680024986818F072F99E4B9F4E8E
:1011E000994D9A4602E001340A2C1ED00A222100B1
:1011F000300008F023F84B461B68986818F060F937
:101200002200290084A814F085FF0028EBDA3800BA
:1012100007F022FF404617F083F9013401004246EF
:10122000504608F00BF80A2CE0D10A220A218C481B
:1012300008F004F84B461B68986818F041F9894893
:1012400007F0FCFF0022002384A810F0F3FE041E28
:1012500000D13AE1380007F0FFFE200017F060F9F6
:1012600022000100804807F0E9FF4B461B689868A0
:1012700018F026F954E70A220A217C4807F0DEFF1D
:101280004B461B68986818F01BF9794807F0D6FFA1
:1012900084A810F0A7FC041E00D1B3E06C4807F04E
:1012A000DBFE200017F03CF922000100714807F036
:1012B000C5FF4B461B68986818F002F96E4C200079
:1012C000FFF73CFC6D4810F0E3FC061E00D0A5E0E3
:1012D0002000FFF733FCFF220021280007F000FD6B
:1012E0005B4644AD664A0093FF2107AB280006F039
:1012F00083FC2900634807F0A1FF0122290084A88C
:101300000FF066F8041E00D180E0514807F0A4FEFB
:10131000200017F005F9220001005B4807F08EFF5E
:101320004B461B68986818F0CBF8584807F094FEB5
:10133000889B0293929B0393039A029B934200D152
:10134000B9E002AB0F269C46514F664406AB012222
:10135000310084A80FF0CAFE041E37D017F0E0F861
:1013600022000100380007F069FF889B0293929BDE
:101370000393039A029B9342E8D1899B0293939B28
:101380000393039A029B9342E0D12900414807F05E
:1013900055FF84A810F026FC041E3BD02C4807F013
:1013A0005BFE200017F0BCF822000100314807F076
:1013B00045FF4B461B68986818F082F8364B9D44F1
:1013C0003CBC90469946A246AB46F0BD307807F04B
:1013D000F1FD929B0293889B0393039A029B934295
:1013E000B4D1939B0293899B0393039A029B9342EC
:1013F000ACD1CAE717F094F822000100274807F0A3
:101400001DFFDBE70D4807F027FE52E70B4807F00A
:1014100023FE85E7094807F01FFECAE717F080F8AA
:10142000320001001E4807F009FF51E78CFBFFFF67
:1014300080FA011090FA0110ACFA011054FC01106E
:10144000080C002060FB011000FB011084FB011060
:1014500008FB0110B8FA011010FB0110E0FA0110AE
:101460002CFB01104CFB0110CC310210A0FB011031
:10147000C8FB011068FA011034F00110E4FB011000
:1014800000FC011008FC0110B03102101CFC01101E
:1014900028FC011040FC011074040000C4F001108D
:1014A000E8FB0110200017F03BF8220001000F4874
:1014B00007F0C4FE82E7899B0293939B0393039AF0
:1014C000029B934200D03CE75FE7094807F0C4FD68
:1014D000CBE6380007F0C0FD404617F021F8424641
:1014E0000100024807F0AAFE72E6C046B0310210C1
:1014F00054FC011070B5094D002807D02024286045
:101500000020013CFFF7F6FF002CF9D12B685808AA
:10151000DB0701D5024B5840286070BD44230020F2
:1015200003002080F0B5DE46574645464E46E0B5FE
:101530008DB004900791099300930D0092461C0012
:1015400013000A000100D84807F078FED74B9C42F0
:1015500000D86BE3002D00D1F7E104200999D44BAA
:101560004A0A0890994200D858E3089B01225B027E
:1015700098465346069203930699079A8B00CD48E6
:101580000593DD1E07F05AFE049CCB48210007F0AE
:1015900055FE200016F022FF0124044000D051E344
:1015A000C64807F059FDC64807F056FD049E0AAA32
:1015B0003100C44807F042FE0AAA012130000A9413
:1015C00016F090FF041E00D041E3BC4807F044FD34
:1015D0000A9A7F2A00D83FE3049EBB48310007F0F7
:1015E0002DFEBA4807F038FD0BAA3100B84807F0C5
:1015F00025FE0BAA032130000B9416F073FF002880
:1016000000D0A4E1AD4807F027FD0B99B14807F0E1
:1016100015FE2024B04807F01FFDB04F3D600020AC
:10162000013CFFF767FF002CF9D13A685308D20755
:1016300001D5AB4A53408020039A800084461100B4
:1016400061440C000120A64E010019405B080029EE
:101650006CD07340137001329442F5D1039A04990F
:101660009246894601263B609E48002307F0E6FD2E
:101670000096002200235146484616F0F7FE002847
:1016800000D0EEE28D4807F0E7FC4946964807F0A7
:10169000D5FD00220021484616F024FF002800D086
:1016A00008E3864807F0D8FC8022039B92000021C3
:1016B0001800994607F014FB049900238A464A460D
:1016C0008A4807F0BBFD0096002200234946504699
:1016D00016F090FE002800D0AFE2784807F0BCFC7E
:1016E0003D6020250020013DFFF704FF002DF9D1CA
:1016F0003A685308D20701D5794A53403B60039AB0
:101700000126774D02E00132944214D03100107866
:1017100019405B08002900D06B40D9B28842F2D052
:1017200073483B6007F098FC0A20B0E01370013268
:10173000944289D192E76F483B6007F08DFC6E4878
:1017400007F08AFC6D4B099A9A4200D90AE16C486D
:1017500007F082FC059B6B48013B9A4607F07CFC36
:10176000534620253B600020013DFFF7C3FE002DBE
:10177000F9D13A685308D20701D5594A5340039A20
:101780000120D11C944689460A005F4D544E6544A1
:10179000010019405B08002900D17FE073401370FD
:1017A0000132AA42F4D1049D3B604A460523290038
:1017B0004C4807F043FD012305229B460093494610
:1017C0000023280016F052FE002800D081E23B489A
:1017D00007F042FC2900444807F030FD00220021B8
:1017E000280016F07FFE002800D06DE2334807F095
:1017F00033FC039B80220533994692000021180098
:1018000007F06EFA049D05234A462900374807F081
:1018100015FD5B460522009349460023280016F07B
:10182000E9FD002800D04AE2244807F015FC5346A1
:1018300020263B600020013EFFF75CFE002EF9D120
:101840003A685308D20701D5254A53402F49039AD5
:101850008A46524494462100214A644693463B609E
:1018600001204A468C4602E00132A24250D00100DB
:10187000157819405B08002901D059464B40D9B270
:101880008D42F1D01A483B6007F0E6FB12200DB004
:101890003CBC90469946A246AB46F0BD137001325F
:1018A000AA4200D074E77EE7ECFC011007020000BA
:1018B000FF09000040FD011068FD011088FD0110C6
:1018C00090FD0110ACFD011004FE011030FE01106E
:1018D0004CFE011074FE0110C8FE011044230020CC
:1018E00003002080ECFE01100CFF011030FF0110FE
:1018F000A4FF011090FF011068000210FF03000018
:10190000D0FF0110E0FF01100302000005020000FB
:10191000D6483B60644607F09FFBD54807F09CFB28
:10192000D44B0A9A9A4200D9B0E0D34807F094FB0E
:10193000069C079D21002A00D04807F07FFC230069
:10194000013306939D4200D316E600209FE7CC4862
:1019500007F082FB0B99012900D957E6C94807F027
:101960007BFB56E62026059B9D1E3D600020013E28
:10197000FFF7C0FD002EF9D13A685308D20701D510
:10198000C14A53400121C0480A001A405B08002A9E
:1019900070D0039A4340935501364645F4D3039AD9
:1019A000049992468946089E3B60B84805230096F4
:1019B00007F044FC0096052200235146484616F0E5
:1019C00055FD002800D08EE1B14807F045FB49469F
:1019D000B04807F033FC00220021484616F082FD93
:1019E000002800D07AE1AA4807F036FB039B424664
:1019F00000211800994607F073F90499089E8A4659
:101A000005234A460096A44807F018FC00960522D4
:101A100000234946504616F0EDFC002800D067E14F
:101A20009B4807F019FB3D6020250020013DFFF792
:101A300061FD002DF9D13A685308D20701D5924AC9
:101A400053400120A446904E039C3B600200615D20
:101A50001A405B08002A00D07340DAB291420FD1DD
:101A600001354545F2D364463B600AD17F4807F013
:101A7000F3FA6FE6039A93550136B04584D88EE7A2
:101A80003B60864807F0E8FA0E2000E7059B002B34
:101A900008D03B6020231D000020013DFFF72AFDF8
:101AA000002DF9D13A685308D20700D5B8E080205C
:101AB000039AC0008146110049448C4672490120B6
:101AC00089466546010019405B08002900D19FE066
:101AD00049464B4013700132AA42F3D1049D039A48
:101AE0003B60290006236E48924607F0A7FB0123BE
:101AF00006229946009351460023280016F0B6FCB2
:101B0000002800D0F9E0624807F0A6FA654B2200F1
:101B10002900634807F092FB4B46624A009321007C
:101B20000023280016F0A2FC002800D0EFE058485F
:101B300007F092FA049D5748290007F07FFB002226
:101B40000021280016F0CEFC002800D0E9E0504823
:101B500007F082FA8022039DD2000021280007F0BE
:101B6000BFF8049906232A004F488A4607F066FB0F
:101B70004B460622009329000023504616F03AFCFB
:101B8000002800D0BEE0424807F066FA049D454BAD
:101B900022002900444807F051FB4B46414A00937C
:101BA00021000023280016F025FC002800D0BDE00D
:101BB000374807F051FA059B002B07D020243B60E3
:101BC0000020013CFFF796FC002CF9D13A6853083D
:101BD000D20728D43B6001202B4C039D04E08022D7
:101BE000D200964227D001360200A95D1A405B0858
:101BF000002A00D06340DAB29142F0D03B608023EB
:101C0000DB009E4200D087E0184807F025FA8FE6F7
:101C100013700132AA4200D054E75FE70892A4E4AF
:101C2000194A534043E7184A5340D3E71F4807F087
:101C300013FA01202BE63B60E6E7114807F00CFAA7
:101C4000082024E60E4807F007FA02201FE60C4899
:101C500007F002FA03201AE6154807F0FDF9042000
:101C600015E6074807F0F8F9062010E690FF011086
:101C70004C0002107F008000D0FF011020000210F5
:101C80007CFD0110A0FE01100300208050FF011018
:101C900088FD01100CFF011070FF0110A4FF01105E
:101CA000ECFE01100600800030FF011014FD011051
:101CB000D8FD0110204807F0CFF90720E7E51E48BE
:101CC00007F0CAF91120E2E51B4807F0C5F910201A
:101CD000DDE5194807F0C0F90F20D8E5164807F0F0
:101CE000BBF90C20D3E5144807F0B6F90B20CEE57C
:101CF000114807F0B1F90D20C9E50F4807F0ACF91C
:101D00001320C4E50C4807F0A7F91620BFE50A48E0
:101D100007F0A2F91420BAE5084807F09DF9182049
:101D2000B5E5054807F098F91520B0E5024807F039
:101D300093F91720ABE5C0467CFD0110A4FF01100C
:101D4000802310B50B4CC0B2A5441B016A46032189
:101D5000FFF7E8FB041E08D00100074807F06EFA01
:101D6000200080231B019D4410BD044807F074F936
:101D7000F6E7C04600F8FFFF58FC0110BCFC01105C
:101D800070B5094D002807D0202428600020013CB0
:101D9000FFF7F6FF002CF9D12B685808DB0701D5B7
:101DA000024B5840286070BD48230020030020806B
:101DB000F0B54546DE464E4657468023E0B583469D
:101DC0008BB00D00904689469B01994200D99946F7
:101DD0004946280005F0B8FF00900391002900D083
:101DE00061E1484606F04CFF061E00D167E143461C
:101DF000D14C002B07D0202723600020013FFFF7A4
:101E0000BFFF002FF9D122685308D20701D5CB4A72
:101E10005340CB48236007F01FF903F0E9FB04901F
:101E2000059109A9584616F08BFC002803D1099B9F
:101E3000002B00D014E1C349584616F0E7FB070019
:101E4000002F00D153E14D452DD34B469B080693FF
:101E50009B009B19019300239A462B0055469A46F6
:101E6000069B002B0ED032002368012119405B082D
:101E7000002900D1EEE0B1494B40019908C29142DE
:101E8000F3D123603B0001224946300016F086FC66
:101E9000002800DCC9E0012800D0D4E0009B013517
:101EA0009D42DDD35546300006F00EFF380016F097
:101EB00029FC03F09DFB049A059B801A994106F0CA
:101EC00077FA0022A04B06F094F906F07DFA06F0AE
:101ED0006BFE9E4B02009A4606000B0050460F0018
:101EE00007F0ACF9280006F017FA32003B00049026
:101EF000059106F07EF90022954B06F098F9020054
:101F00000B00944807F09AF9039B002B00D0E7E000
:101F1000484606F0B5FE0190002800D1D9E04346BE
:101F2000002B07D0202623600020013EFFF728FF6A
:101F3000002EF9D122685308D20700D5C6E08649A1
:101F40005846236016F062FB0290002800D1DDE0C5
:101F5000824807F081F803F04BFB4B46069007914F
:101F60009B0800264D452DD35A46C84699460392F4
:101F7000029B01224146019816F030FC002800DC4B
:101F80007BE0012800D087E04B46002B16D0B5003F
:101F9000AB46019FCB44012123685A08194201D066
:101FA000664B5A403B682260934203D029006C483C
:101FB00007F044F9013504375D45ECD1009B01364B
:101FC0009E42D5D3019806F07FFE029816F09AFB48
:101FD00003F00EFB069B079CC01AA14106F0E8F92E
:101FE0000022594B06F005F906F0EEF906F0DCFD8B
:101FF0000D00040002000B00504607F01FF9049882
:10200000059922002B0006F0F4F80022504B06F050
:102010000EF902000B004F4807F010F90BB03CBC62
:1020200090469946A246AB46F0BD17F07DF9006890
:1020300019F042F8029017F077F9029A03685946AE
:10204000484807F0FBF8484B484A7221484816F0C8
:10205000E9FE23E7019908C28A4200D005E710E7AC
:102060009D4200D2E7E64349584616F0CFFA0022D7
:10207000002307000FF0DEFFE2E617F055F90068D5
:1020800019F01AF8050017F04FF903682A005B42AF
:102090000399394807F0D2F8334B384A9D21344828
:1020A00016F0C0FE70E7364B304A4A21304816F031
:1020B000B9FE484606F0E4FD061E00D097E6314B17
:1020C0002A4A4C212A4816F0ADFE90E61B4A53409E
:1020D00035E72C4B294A8B21254816F0A3FE1EE735
:1020E000274B264A8921224816F09CFE10E717F05C
:1020F0001BF9006818F0E0FF040017F015F9220042
:1021000003685946204807F099F887E717F00CF95B
:10211000006818F0D1FF060017F006F903683200D6
:1021200059465B42194807F089F8194B134A932125
:102130000F4816F077FE0BE74823002003002080AD
:10214000380202101402021080842E41680202102C
:102150000000503FE8000210A43F0210640102108A
:102160002C010210D00002105C020210900002103C
:10217000D0010210CC00021018010210A0000210C1
:10218000B0000210C4000210180202100401021074
:1021900030020210F0B5DE4657464E4645468246AE
:1021A000E0B5020085B0E349E34807F047F8504640
:1021B00016F086FB431C00D149E25246DF49DE4857
:1021C00007F03CF8C82006F05BFD0400FA2006F09A
:1021D00057FD0600002C00D1D5E2002E00D1CBE245
:1021E000504616F01BFB002800DAA6E2D44B01256E
:1021F0009946B0462B00D34AFA21404605F0FCFC34
:10220000C821200016F022FB22004146CE4807F0EC
:1022100015F8CE49404616F0F9F9061E00D107E23E
:102220002900C8223031200006F05AFDC84B002793
:102230009B4633000122C821200016F0AFFA012886
:1022400005D0C44BBE4AE021584616F0EBFD0137DD
:10225000AF42EED130007D1C16F054FA062DC9D1E4
:10226000200006F031FD404606F02EFDBA49BB487D
:1022700006F0E4FFC82006F003FD0400FA2006F093
:10228000FFFC0500002C00D166E2002D00D16CE2BD
:1022900001239B46C7339C46A4446346A8465E463A
:1022A00003933300A74AFA21404605F0A5FCC82154
:1022B000200016F0CBFA22004146A94806F0BEFFE6
:1022C000A849404616F0A2F9814617F02DF800689B
:1022D00018F0F2FE050017F027F82A0003684146BF
:1022E000A14806F0ABFF4B46002B00D198E130230C
:1022F0009C46B444634602939C4B00279B46C822ED
:102300000021200006F0ECFC4B460122C8212000F1
:1023100016F064FA012806D08B21954B5A464900E5
:102320008B4816F07FFD25002B78029A934206D049
:102330001E21904B8D4AFF31854816F073FD039B9B
:1023400001359D42F0D10137B742D8D148467E1CB5
:1023500016F0D8F9062EA4D1200006F0B5FC4046B0
:1023600006F0B2FC52468449734806F067FFC82065
:1023700006F086FC0400FA2006F082FC0500002C22
:1023800000D107E2002D00D10EE2C821200016F096
:102390005DFA7A4F2100380006F050FF784E300089
:1023A00016F08EFA002800D0BFE1300016F036FAA1
:1023B000002800D0A4E1C821200016F047FA21002F
:1023C000380006F03BFF6F4E300016F079FA002817
:1023D00000D08DE1300016F021FA8046002800D0B0
:1023E0007EE1C821200016F031FA2100380006F005
:1023F00025FF654BFA219946644B4A460093280015
:10240000534605F0F9FB2900200018F0ADFC002828
:1024100000D041E133005E4AFA21280005F0ECFBD0
:10242000220029005B4806F009FF4849280016F001
:10243000EDF88346002800D186E130275946380060
:1024400016F058FA874206D0B721534B534A490039
:102450003F4816F0E7FC0137942FEFD1584616F0AD
:1024600051F94F4B18009B4616F0D8F94346002B04
:1024700000D009E1C821200016F0E8F9494B2100FD
:102480001800984606F0DAFE5146200018F06CFC61
:10249000002800D0F0E0200006F016FC280006F02E
:1024A00013FC52464049244806F0C8FEC82006F0F6
:1024B000E7FB0500FA2006F0E3FB0400002D00D145
:1024C0007AE1002C00D181E1304B4A460093FA2199
:1024D0005346200005F090FB200016F09FF90028DD
:1024E00000D0F5E0C821280016F0B0F929002F48E7
:1024F00006F0A4FE2100280018F036FC002800D0C9
:10250000DEE02100280018F073FC32002049200092
:1025100005F05EFB2A002100254806F08FFE1149D8
:10252000200016F073F81C4B07009A46214B30260A
:10253000994641E080020210A8030210A002021096
:10254000240302105804021068040210140202103E
:10255000E803021084040210C4020210980402105E
:10256000A0040210A43F0210BC0402104803021091
:10257000D8040210E8040210E40202102005021040
:10258000340502107C050210840502108C0502102F
:10259000E0050210E80502100006021068030210B0
:1025A00028060210300602100403021098060210DA
:1025B000B006021088030210380016F0BFF90100BF
:1025C000B0420AD03200854806F038FED721534683
:1025D0004A464900824816F025FC0136942EEBD17C
:1025E000380016F0ABF9431C29D1380016F08AF8F0
:1025F000584616F013F9C821280016F027F92900CB
:10260000404606F01BFE280006F05EFB200006F0A8
:102610005BFB05B03CBC90469946A246AB46F0BD7C
:102620008621704B704A49006D4816F0FBFB5EE650
:102630006C4B4A46D4216A4816F0F4FBF0E5B4210D
:102640006A4B6B4AFF31664816F0ECFBCDE716F09B
:102650006BFE0368112B00D1AFE516F065FE006834
:1026600018F02AFD040016F05FFE220003685146B0
:10267000604806F0E3FDCCE77C215F4B5F4AFF3109
:10268000574816F0CFFB06E7BB215D4B5B4A49007C
:10269000534816F0C7FBEDE621002A00594806F022
:1026A000CDFD2900200018F05FFB002800D1B1E625
:1026B000AE21554B514A4900494816F0B3FBA9E6F3
:1026C000CC21514B4A4A4900454816F0ABFB18E76C
:1026D00094214E4B464AFF31414816F0A3FB01E7D7
:1026E000AA21474B454A49003D4816F09BFB78E636
:1026F0005021434B414AFF31394816F093FB69E6BC
:1027000016F012FE006818F0D7FC060016F00CFE5A
:10271000310002683E4806F091FD4821384B374AA7
:10272000FF312F4816F07EFB45E64221344B334AF9
:10273000FF312B4816F076FB37E6364B364AC3217D
:10274000274816F06FFB51E56821264B2B4AFF31D5
:10275000234816F067FB70E6304B234AF9212048E6
:1027600016F060FB002D00D092E52D4B1E4AFA2199
:102770001B4816F057FB8BE5294B274ABF21184809
:1027800016F050FB2CE5254B234ABE21144816F0C9
:1027900049FB22E59C21214B184A4900104816F0BC
:1027A00041FB002D00D0F0E53A211D4B134AFF31CB
:1027B0000B4816F037FBE8E58E21184B0C4AFF3129
:1027C000074816F02FFB002C00D07DE6C721144BE4
:1027D000074A4900024816F025FB75E6C8060210B4
:1027E000E80302103002021048030210F40602103F
:1027F00088030210BC0302104C060210680302108A
:102800003C05021098050210B8050210740602106B
:10281000600502104804021024030210DC030210B9
:102820003C040210F0B5DE4657464E464546834608
:10283000E0B5020095B0E449E44806F0FFFC08ACBE
:102840005A46E349E14806F0F9FC0622002120003F
:1028500006F046FA584615F0E1FF002801D001F0D5
:102860008FFBC0200121400006F01CFA051E01D19B
:1028700001F095FB0100D74816F010F9D64F00285B
:102880003ED1D64B9A46D64B9946D64B9846BC235A
:102890005B00EE583800310018F066FA002801D1CC
:1028A00001F0C1FD3100504618F05EFA002801D158
:1028B00001F0BEFD3100484618F056FA002801D15B
:1028C00001F085FA3100404618F04EFA002801D197
:1028D00001F0B3FD3100C44818F046FA002801D1D8
:1028E00001F0B0FD3100C14818F03EFA0523002880
:1028F00001D101F06DFA280016F03EF90028C6D08B
:10290000280010F0BBF82378012B01D001F003FA66
:102910006378012B01D001F0F2F9A378012B01D0EB
:1029200001F0E1F9E378012B01D001F0D0F923792E
:10293000012B01D001F0BFF96379012B01D001F027
:10294000B2F9C02200215200280006F0C9F9002186
:102950000622200006F0C4F92900380016F09EF87F
:10296000002813D10123BC269846A14F7600A9590F
:10297000380018F0F9F9002801D001F017FA4346A1
:102980002800237016F0F8F80028F0D0280010F086
:1029900075F82378012B05D0964B974A97499848AC
:1029A00016F040FA280006F08FF95A4695498748F4
:1029B00006F044FC584615F031FF002801D001F024
:1029C0006DFB914D280015F0F3FF280015F0F0FF86
:1029D000431C06D0A1218D4B8D4A8900884816F0F2
:1029E00021FA002015F08EFE431C06D0A221894B4F
:1029F000874A8900824816F015FAFA26B600310097
:102A0000280016F0EBF815F07DFE2100280015F0E7
:102A100097FE089BB34206D0A4217F4B7C4A8900D5
:102A2000774816F0FFF97D4F2800390015F0EEFDCC
:102A3000061E01D101F0B3FCFA2332699B009A42D1
:102A400001D001F07CF97369002B01D001F077F916
:102A50003100FF2015F04EFFFF2801D101F07DF974
:102A6000FA239B0098466A4B9A46654B994606E0C6
:102A700001235B429C46E0444346002B12D03000C9
:102A800015F05CFF0028F3D0A821654B5246890061
:102A9000484616F0C7F901235B429C46E044434692
:102AA000002BECD1300015F049FF431C06D0A921C2
:102AB0005C4B574A8900524816F0B4F9B36B32693F
:102AC000934201D001F033F9F36B7269934201D064
:102AD00001F02DF9300016F037F9431C05D0524BA8
:102AE0004B4A5249464816F09DF9300015F00AFE4F
:102AF0004F4B28001900984615F088FD061E01D19D
:102B000001F095FBFA239B009946414B9A46310010
:102B1000FF2015F0EFFEFF2805D0464B52464649F0
:102B2000374816F07FF901235B429C46E1444B464F
:102B3000002BECD1300015F0E5FDFA212800C9008A
:102B400016F04CF8061E01D101F079FB300015F0AB
:102B5000D9FD2100280015F0F3FDFA23089ADB00C7
:102B60009A4205D0354B2A4A3549254816F05AF97C
:102B70004146280015F04AFD061E01D101F067FB11
:102B8000300015F02DFF002801D001F028FAFA23BB
:102B90009B0099461E4B9A46300015F0CFFEFF2849
:102BA00005D0284B52462849154816F03BF9012319
:102BB0005B429C46E1444B46002BEDD1FA239B003F
:102BC0009946134B9A4648E008070210A8030210E2
:102BD0005C07021034F0011034050210AC0802103A
:102BE000B8080210C4080210D0080210DC08021055
:102BF0007C0502104809021024080210650200003A
:102C0000E80802108C07021064090210740902100F
:102C10005408021098090210B4090210A43F0210CF
:102C2000100A02101C0A0210540A0210A902000025
:102C3000CC000210700A0210B7020000940A0210C1
:102C4000C2020000C40A0210CD02000001235B4250
:102C50009C46E1444B46002B11D0300015F06EFE2F
:102C60000028F3D04A4B52464A494B4816F0DAF84E
:102C700001235B429C46E1444B46002BEDD10022F0
:102C80004649300015F0C6FE002801D001F09FF93A
:102C9000300015F0A5FE414B984206D0B621404BBE
:102CA000404A89003C4816F0BDF8300016F04CF858
:102CB000002801D001F07BF9B36B3269934201D057
:102CC00001F063F8F36B7269934201D001F05DF893
:102CD000300015F033FE431C05D0334B314A3349E5
:102CE0002D4816F09FF8300015F00CFD210028004B
:102CF00015F026FD294B089A9A4205D02C4B294AFB
:102D00002C49254816F08EF82B4E2800310015F07E
:102D100065FF15F0F7FC2100280015F011FD089B58
:102D2000B34206D0BA21254B1E4A89001A4816F034
:102D300079F83900280015F069FC061E01D101F070
:102D40008EFA300015F04CFE002801D001F037F962
:102D5000FA239B009946134B9A46300015F0EEFD7E
:102D6000FF2805D0164B524616490B4816F05AF864
:102D700001235B429C46E1444B46002BEDD1F533E9
:102D8000FF330393024B9A46064B994621E0C04617
:102D9000D40A0210D3020000E8080210D606000090
:102DA000240B0210540802101C0A0210DD0200005D
:102DB000700B0210E2020000DC050000880B02101C
:102DC000C40A0210F3020000039B013B0393002B93
:102DD0000FD0300015F0B2FD0028F5D053464A461A
:102DE000E849E94816F01EF8039B013B0393002BCA
:102DF000EFD1B36B3269934201D000F0BEFFF36BA9
:102E00007269934201D000F0B8FF300015F096FDD2
:102E1000431C05D0DD4BDE4ADE49DB4816F002F8E4
:102E2000300015F06FFC0021280015F0D7FE061EBB
:102E300001D101F093FA280015F0BAFD431C05D02A
:102E4000D54BD34AD549D04815F0ECFF300015F0EA
:102E500059FC2100280015F073FC089B002B01D0C1
:102E600001F02CF9280015F0A3FD002801D001F095
:102E70001DF95A46CA49CB4806F0E0F9C82005F0CA
:102E8000FFFE0600FA2005F0FBFE0500002E01D132
:102E900001F0BBF9002D01D101F0C1F9C24815F0D4
:102EA000BDFC431C05D0C14BC14AD321B64815F027
:102EB000B9FFC04B1800994615F0B0FC002801D0AE
:102EC00001F041F8BC4815F0A9FC431C05D0B74BF4
:102ED000B74ADB21AC4815F0A5FF584615F09EFC1B
:102EE000002801D000F0D6FF484615F097FC0028D6
:102EF00001D000F0DCFF5B46581C15F08FFC002869
:102F000001D000F0E2FFAD4815F0DAFC002801D056
:102F100000F0E8FFAA4815F0D3FC002801D000F02B
:102F2000EEFFA84B1800994615F0CAFC002801D006
:102F300000F0F4FFA44815F0C3FC002801D000F015
:102F4000FAFFA24815F0BCFC431C05D0974B984AE9
:102F5000FD218D4815F066FF484615F05FFC0028FE
:102F600001D001F041F99A4815F0AAFC002801D0DF
:102F700001F031F9974815F051FC431C06D00A21A5
:102F80008A4B8B4AFF31804815F04CFF924815F070
:102F900045FC002801D001F015F9904BC8210093A1
:102FA0008F4A5B46300004F027FE300018F0FCFE2C
:102FB0000100280015F04AFC002806D08A21894B20
:102FC0007B4A4900704815F02DFFFA21280015F0C2
:102FD0003DFC854206D01821834B754AFF316A4873
:102FE00015F020FF3100280017F034FE002801D032
:102FF00001F0DFF87D4815F0C3FC431C06D08F219B
:103000006A4B6B4A4900604815F00CFF784815F090
:1030100005FC002801D001F0C3F8764B1800994652
:1030200015F0AEFC002801D001F0B1F8484615F0CB
:10303000F5FB431C06D094215C4B5D4A4900524885
:1030400015F0F0FE6C4815F0E9FB002801D001F006
:1030500095F8300005F038FE280005F035FE5A4698
:103060006649504806F0EAF8C82005F009FE060057
:10307000FA2005F005FE0500002E01D101F0A9F9A6
:10308000002D01D101F0AFF9FA215B465C4A28001E
:1030900004F0B2FD3900280015F0B8FA002805D078
:1030A000584B594A5949384815F0BCFE414628004A
:1030B00015F0ACFA002805D0524B534A5449324817
:1030C00015F0B0FE534B280019009A4615F09EFAF1
:1030D0008146002801D101F090F8C822302130004B
:1030E00005F0FEFD4B4601220A21300015F056FB8B
:1030F000012805D0484B444A4849234815F092FE20
:10310000484615F06DFC0A2805D0454B3E4A454916
:103110001D4815F087FE2100280015F011FB089BC3
:10312000002B01D001F022F8484615F0EBFA2100FF
:10313000280015F005FB089B0A2B05D03A4B324AB4
:103140003A49114815F06EFE3949280015F05EFA2B
:103150008146002801D101F056F9C8223121300002
:1031600005F0BEFD4B460A220121300015F016FB8A
:103170000A2863D02F4B244A2F49034815F052FEEA
:103180005CE0C046F9020000E80802101C0A0210C8
:1031900054080210FE020000740902100603000029
:1031A0001C070210A8030210D80B0210EC0B02102F
:1031B000E4070210E4FB0110FC0B02100C0C0210DF
:1031C000140C0210200C0210300C0210440C0210DF
:1031D000580C0210740C0210900C0210C40C021057
:1031E00000FC0110E00C0210180D0210800D0210FE
:1031F00028060210B80C02109C0D0210D007021015
:10320000A40D0210B40D021098080210470400002B
:103210004E04000014020210C40D02105B040000F2
:10322000D40D02105E040000180E02106A040000A3
:103230008CF90110380E02107204000021002800E1
:1032400015F07EFA089B0A2B05D0E94BE94AEA49BA
:10325000EA4815F0E7FD484615F054FA2100280029
:1032600015F06EFA089B142B06D09021E44BE14A2E
:10327000C900E24815F0D6FD3900280015F0C6F95E
:103280000290002801D101F0C6F8C82200213000C8
:1032900005F026FD029B01221421300015F09EFA54
:1032A00001239946731E04934B46A9461D00049BB7
:1032B0006A1E5B5D092A0ED8302B06D09221D14BB5
:1032C000CC4AC900CD4815F0ADFD0135049B6A1EFE
:1032D0005B5D092AF0D9312B05D0CB4BC54ACB49D0
:1032E000C64815F09FFD142DEFD1029B012201214C
:1032F00030004D4615F052FA002801D000F02EFFA4
:10330000029815F0FFF92100280015F019FA089B22
:10331000142B06D09421BA4BB64AC900B74815F011
:1033200081FD5146280015F071F915F0EBF92100E7
:10333000280015F005FA089B002B01D000F006FFCD
:10334000300005F0C1FC280005F0BEFC5A46B0492B
:10335000B04805F073FF584615F060FA002801D018
:1033600000F0EBFE0022AC49AC4815F005FD431C13
:1033700006D0F721AA4BAB4A8900A04815F052FDB0
:10338000A94B1800994615F09BFA002801D000F0CF
:10339000CBFEA64815F094FA002801D000F0AEFE4E
:1033A0005146A34815F032F9051E01D100F0B4FED4
:1033B000A04E2B0001222321300015F0EFF9280048
:1033C00015F0A0F9002801D000F090FE484615F055
:1033D00025FA994B39001800994615F017F9051E82
:1033E00001D101F008F82D220021200005F078FC21
:1033F0002D212A00200015F0E1FC3100200017F0FB
:10340000B3FC002801D000F069FE2B69232B01D00A
:1034100000F0C4FC6B69002B01D000F0BFFC874EAC
:1034200000223100484615F0A7FC431C05D07C4B18
:103430007C4A8349714815F0F5FC280015F062F9C3
:1034400000223100484615F097FC002801D000F01A
:1034500082FD3900484615F0D9F8002805D0794B8F
:10346000704A7949654815F0DDFC784D51462800D1
:1034700015F0CCF88146002801D100F088FF744B8C
:1034800029229A4601214B46504615F087F92928F2
:1034900005D0704B634A7049584815F0C3FC484644
:1034A00015F030F900223100280015F065FC431CAE
:1034B00006D083215A4B5B4AC900504815F0B2FC34
:1034C00001223100280015F057FC002801D000F03F
:1034D000FDFD624815F0A2F9002801D000F090FD32
:1034E00039005F4815F092F8051E01D100F096FDF5
:1034F0002B69292B01D000F038FC6B69002B01D01F
:1035000000F033FC2D220021200005F0E9FB2D21E5
:103510002A00200015F052FC5146200017F024FC30
:10352000002801D000F064FD280015F0EBF85A46A1
:103530004C49384805F082FE584615F06FF94A4864
:1035400005F09EFB8246002801D100F031FF474E76
:10355000300005F095FBC5235246454D935502902A
:10356000280015F025FA3100280015F037FB15F07A
:10357000C9F82100280015F0E3F8089BB34205D0F4
:103580003C4B3D4A3D491D4815F04CFC3900280094
:1035900015F03CF8061E01D100F013FF334AFF215D
:1035A000504605F09DFB80213300042289005046DF
:1035B00015F014F9032805D0314B2F4A31490F4833
:1035C00015F030FC2C4A002391460C4F07935246CD
:1035D000D25C002A00D057E3244A01330793934278
:1035E000F5D15246214BD35CC52B54D04CE0C0469C
:1035F000180E02109808021076040000E808021065
:10360000540E0210800E02109C0E02109404000052
:10361000BC070210A8030210C80E0210D40E02103C
:10362000EC0B021084080210E00E0210EC0E0210E7
:10363000FC0E0210140F0210380F0210A80F021017
:10364000FD030000B40D02100A040000E80F021090
:10365000F40F021020100210120400005810021083
:103660006C100210A00702102606000025060000BC
:10367000F810021004110210680802103D03000047
:10368000241102104B030000D521E04BE04A8900D1
:10369000E04815F0C7FB300015F034F8280041462B
:1036A00014F0B4FF051E01D100F069FE280015F0EA
:1036B00097F9002801D000F0B9FC5B460026574678
:1036C0000593D54B00229B1B984631009B08280090
:1036D0009A4615F09FF92800B14615F081F9864207
:1036E00005D0CE4BCA4ACE49CA4815F09BFBCA4A00
:1036F0000021029805F0F4FA00230793C94B9B467A
:103700002B000122042107A815F048F8012805D054
:103710005B46BF4AC449BF4815F084FB079B02992A
:103720009A00535004239C462800E14415F058F9B0
:10373000484500D1A1E2BD4BB54ABD49B54815F099
:1037400071FB079B013307935345D9D342460323AB
:103750009A439046B2462800C24415F041F982458A
:1037600005D0B44BAA4AB449AA4815F05BFB002225
:103770000021280015F04EF9A74A0021380005F075
:10378000AFFA2B0001225146380015F027F8012826
:1037900005D0A44B9E4AA9499E4815F043FB00233F
:1037A0000793002E0BD0A64A9346994A9146FA5C9D
:1037B000002A00D054E201330793B342F7D3BB1978
:1037C00042460299180099461BF092FA002800D050
:1037D0003EE2914AFF21380005F082FA00220021E2
:1037E000280015F017F900230793964B00209B46FD
:1037F00038182B000122012114F0F0FF012805D018
:103800005B46834A9049834815F00CFB280015F06D
:10381000E7F8079B0133834200D114E28B4B7D48CC
:103820007B4A8B4915F0FEFA079B581C079082458E
:10383000DED84246029948461BF05AFA002800D0CA
:10384000FAE1754AFF21380005F04AFA002200210A
:10385000280015F0DFF8002307935346043B049338
:103860006B4B00209B462B0003223818012114F0DB
:10387000B5FF079B049A934216D2032806D0ED2188
:10388000744B634A8900634815F0CCFA280015F0A0
:10389000A7F8079B0333834207D06F4B5A466F4903
:1038A0005C4815F0BFFA079BD81C07908245DAD810
:1038B0004246029948461BF01BFA002800D0B4E1AA
:1038C0000136252E00D0FCE6059B28009B4614F00F
:1038D00019FF514BBA46FB5CC52B05D04B4B4C4AEC
:1038E0005F494C4815F09EFA504605F0EDF90298F4
:1038F00005F0EAF95A465B495B4805F09FFC5846DB
:1039000014F08CFF002800D0B8E3584D280015F0C3
:103910004FF82800564914F079FE051E01D100F039
:1039200025FD0023534F544E08932B000422012100
:10393000200014F033FF042806D0DD213B003200C4
:103940004900344815F06EFA280015F049F8089B34
:1039500001339A00904200D161E1BC21474B464AB5
:10396000FF312C4815F05EFA089B454A0133089355
:103970009342DAD90022002328000EF05BFB2800D6
:1039800015F02EF8002800D070E32B00042201214E
:10399000200014F023FF042806D0E221394B364AD8
:1039A00049001C4815F03EFA089B002B00D046E366
:1039B00002220021280015F02DF8002800D04DE348
:1039C000280015F00DF8F3235B01984206D0E5219D
:1039D0002D4B294A49000F4815F024FA02222B49A1
:1039E000280015F017F8002800D14FE3280014F044
:1039F000F7FFF3235B0198424AD0E821224B1E4A8D
:103A00004900044815F00EFA42E0C0466011021069
:103A100068080210E8080210250600009011021044
:103A200069030000B411021072030000C4110210F7
:103A30007B030000E4110210830300008B030000ED
:103A40000412021094120210A1030000B01202101E
:103A5000A3030000D4120210E4120210B603000007
:103A6000C103000040070210A80302100413021053
:103A70001C13021020130210080802104013021039
:103A80009707000084130210A813021040C3FFFF21
:103A90002B0001220121200014F0A0FE002800D0FC
:103AA000AAE1D94BD94F9846D94E002239002800B7
:103AB00014F0B0FF002800D0A9E0280014F090FF17
:103AC000874206D0DC21D34BD34AFF31D34815F0CF
:103AD000A9F92B0004220121200014F07FFE042804
:103AE00006D0E021CE4BCC4AFF31CC4815F09AF9F4
:103AF000089BB34200D17DE0F021CA4BC64A490081
:103B0000C648043E15F08EF9103F032ECDD1022297
:103B1000C549280014F07EFF002800D064E1280089
:103B200014F05EFF002800D056E10026039F38E025
:103B3000280014F055FF864206D0EE21B54BB64A58
:103B4000FF31B64815F06EF92B0004220121200048
:103B500014F044FE042806D0F221B14BAE4AFF31E6
:103B6000AE4815F05FF9089BBB4206D0F921AD4B7A
:103B7000A94A4900A94815F055F904214942891B71
:103B800001222800013714F045FF00282AD128001F
:103B900014F026FF00281DD1F3230436DB009F42DA
:103BA0000ED001223100280014F034FF0028BFD0CD
:103BB000F621954B984A4900984815F033F9B7E734
:103BC000280014F09FFD15B03CBC90469946A246D3
:103BD000AB46F0BDF821954B8F4AFF318F4815F069
:103BE00021F9D9E7FB21884B8B4A49008B4815F016
:103BF00019F9CCE7043E103F032E00D187E70022DD
:103C00003900280014F006FF002800D155E7ED2107
:103C10004346814A4900814815F004F94DE77C4A42
:103C20000893934200D880E6A4E6814B814A8249FA
:103C30007A4815F0F7F843E67D4B7E4A7F4977488E
:103C400015F0F0F8FDE50790824500D9D0E5F0E5E4
:103C5000E621774B774A8900704815F0E3F8B8E51C
:103C60005B464A4676496D4815F0DCF8079B013300
:103C70000793B34200D29AE5A1E5079B013307936E
:103C80009A4500D93CE561E5D4216E4B4A4689004E
:103C9000380015F0C7F8079B6B4A0133079393422E
:103CA00000D894E49DE4694B694A6A495B4815F081
:103CB000B9F8FEF746FE654B654A6649574815F068
:103CC000B1F86379012B01D1FEF73BFEEBE75F4BC7
:103CD0005F4A6049514815F0A5F82379012B01D1BD
:103CE000FEF72AFEE7E7594B594A5A494B4815F067
:103CF00099F8E378012B01D1FEF719FEE7E7534B62
:103D0000534A5449454815F08DF8A378012B01D149
:103D1000FEF708FEE7E74D4B4D4A4E493F4815F088
:103D200081F86378012B01D1FEF7F7FDE7E74A4BF5
:103D30004A4A4B49394815F075F8FEF7CBFE494918
:103D40003648494B454A15F06DF83100FF2014F014
:103D5000D1FDFF2801D0FEF783FE444B3F4A444982
:103D60002E4815F05FF8FEF77BFE424B424A43496E
:103D70002A4815F057F8FFF7C5FB374B374A40493B
:103D8000264815F04FF8FFF740F8B721324B334A79
:103D90008900224815F046F8FEF79AFF394B364A5B
:103DA00039491E4815F03EF8FFF739FB280014F09A
:103DB000E3FE002801D1FEF7DAFD28000EF05EFEDA
:103DC0002378012B01D0FEF7E7FDFEF7EBFD022380
:103DD0000122E254FEF78FFDE8212C4B0E4AFF3101
:103DE0000E4815F01FF8A0E6F321074B0A4A4900D8
:103DF0000A4815F017F892E6EA21254B064A4900D1
:103E0000064815F00FF84CE6740602105C1E000020
:103E100097070000F813021008080210E8080210C3
:103E20008413021034140210A0E1FFFFAC0A021048
:103E30001812021068080210BB030000A70300005C
:103E400091030000481102102406000048090210E6
:103E500024080210460200003C0A02105408021016
:103E6000A502000097020000DC090210FC09021004
:103E70009B0200007C100210840802102404000041
:103E8000FD020000700F0210F90300003C14021044
:103E90008C0D0210F648F74BF74AE12114F0C2FFEF
:103EA000484614F0BBFC002801D1FFF724F8F14B81
:103EB000EF48F14AE62114F0B5FF5B46581C14F0B8
:103EC000ADFC002801D1FFF71EF8E948E94BEA4AAA
:103ED000ED2114F0A7FFE94814F0F2FC002801D10D
:103EE000FFF718F8E248E34BE34AF12114F09AFF98
:103EF000E34814F0E5FC002801D1FFF712F8DD4B90
:103F0000DB48DD4AF32114F08DFFDE4B18009946A3
:103F100014F0D6FC002801D1FFF70CF8D448D54B9B
:103F2000D54AF52114F07EFFD74814F0C9FC0028CB
:103F300001D1FFF706F8CF4BCF4AF821CC4814F057
:103F400071FFFEF7FEFFCB4BCB4AD721C84814F0D8
:103F500069FFFEF7B7FF15F0E7F9006817F0ACF856
:103F6000050015F0E1F929000268C84805F066F976
:103F7000C04BC74AC749BE4814F054FFFFF769FA5F
:103F8000BC4BC54AC549BA4814F04CFFC0200121BA
:103F9000400004F087FE051E01D0FEF76BFCC04B0D
:103FA000BD4AC049B24814F03DFFFEF7FEFCBE4BCF
:103FB000BE4ABF49AE4814F035FFFEF77DFEBD4B4B
:103FC000BA4ABD49AA4814F02DFFFEF7C1FEBB4B0B
:103FD000B64ABB49A64814F025FFFEF759FEB221A8
:103FE000B44BB24A8900A24814F01CFFFEF7CFFD83
:103FF000B44BA74AB4499E4814F014FFFFF794FA53
:104000009C4BA34AB1499A4814F00CFF3900B048C0
:1040100014F0FCFA051E01D0FFF76AFAAD4B9C4A7A
:10402000AD49934814F0FEFEFFF762FAD721AB4B7F
:10403000AB4A89008E4814F0F5FEFFF73EFBC6211F
:10404000A84AFF318A48A84B14F0ECFE0222002156
:10405000280014F0DFFC002800D1B1E4CA21854B10
:10406000A04AFF31824814F0DDFEA9E4E021914B23
:104070009C4A49007E4814F0D5FE86E4AE217D4B73
:10408000984AFF317A4814F0CDFE3EE4D021974B98
:10409000944AFF31764814F0C5FEA7E4754B834A75
:1040A0009349734814F0BEFEFEF78BFC914B7F4A98
:1040B00091496F4814F0B6FEFEF7DBFE8F4B7B4A4A
:1040C0008F496B4814F0AEFEFEF7CCFE834B704A6E
:1040D0008C49674814F0A6FEFFF7FBF98A4B6C4A3F
:1040E0008A49634814F09EFEFFF78FF9614B684AD6
:1040F00087495F4814F096FEFFF768F95D4B644A04
:1041000084495B4814F08EFE5146834814F07EFAD1
:10411000051E01D0FFF74CF96E4B5D4A7F495448AC
:1041200014F080FEFFF744F9F821524B584A8900F9
:104130004F4814F077FEFFF72CF9F6214D4B544A07
:1041400089004B4814F06EFEFFF70CF9744B754A6A
:104150007549474814F066FEFFF7F2F8734B714A51
:104160007349434814F05EFEFFF7CAF86C4B6D4A82
:1041700070493F4814F056FEFEF7D6FF9621574B84
:104180003D4A49003A4814F04DFEFEF762FF922185
:10419000524B394A4900364814F044FEFEF746FFB8
:1041A00091214E4B344A4900314814F03BFEFEF752
:1041B00034FF1A21604B304AFF312D4814F032FE93
:1041C000FEF718FF0E212B4B2B4AFF31284814F025
:1041D00029FEFEF7E2FE0621264B274AFF3124483E
:1041E00014F020FEFEF7C6FE0221224B224AFF31C8
:1041F0001F4814F017FEFEF7B6FE364B494A4F49EA
:104200001B4814F00FFEFEF768FF4D4B1A4ACE21F3
:10421000174814F007FE002D01D0FEF73FFE494B72
:10422000154ACF21124814F0FDFDFEF737FE294B49
:104230001E4A45490E4814F0F5FDFEF763FC434B5A
:104240001A4A43490A4814F0EDFDFEF77FFC3F4B44
:10425000164A4049064814F0E5FDFEF791FC3B4B39
:10426000124A3D49024814F0DDFDFEF76AFDC046E2
:10427000E808021074060210E40702100C0C021089
:10428000140C0210200C0210300C0210CC0F021083
:104290008408021005040000240802102102000016
:1042A0003809021026020000400B021054080210C8
:1042B000D9020000AC0A0210EE020000E40A02106B
:1042C000D7020000B81002102904000021040000E9
:1042D0006C100210CC090210230400008C0D021097
:1042E0006808021008080210A0130210D41302106C
:1042F0007E020000B40B02100E030000A00B02109F
:104300000B0300001D040000440F0210F503000021
:10431000EF030000E2030000FC0E0210E6030000C1
:10432000040E021098080210A7040000B80E021034
:104330009B04000063040000540D021054040000AC
:10434000DC0302103C040210B30200003002021031
:10435000BD020000C7020000ED0200003C4B3D4AD8
:104360003D493E4814F05EFDFEF765FDDA21384B0D
:104370003B4A4900394814F055FDFFF7D2FA344B57
:10438000384A3949354814F04DFDFFF78FF9374B5E
:10439000374A3849314814F045FDFFF770F8A52138
:1043A000324B2C4A89002D4814F03CFDFEF744FBAB
:1043B000CB21314B2B4A8900284814F033FDFFF7FD
:1043C000C6F8234B274A2D49244814F02BFDFFF74C
:1043D000E5F82B4B2B4A2C49204814F023FD002DE7
:1043E00001D0FEF751FE294B264A29491B4814F0FB
:1043F00019FDFEF749FE1D4B1D4A2649174814F0CA
:1044000011FDFEF7F0FF124B1E4A2349134814F02A
:1044100009FDFEF7A2FE154B1A4A20490F4814F079
:1044200001FDFEF732FF00230122E254FEF763FA9A
:1044300001230122E254FEF75EFA03230122E25433
:10444000FEF759FA04230122E254FEF754FAC0465B
:10445000300202105408021003030000E8080210A2
:1044600008080210680802105A030000CC09021064
:10447000840802100E040000EC1002104203000039
:10448000DC030210980802103D0400003C040210F6
:104490003E040000F20300006D04000083040000ED
:1044A000D0231B061B68F0B59A004546904641464E
:1044B0008A4ADE465258574693465A1E9341302246
:1044C0004E465B421A40864B00249C46854BE0B525
:1044D0009A4683B062440092E20813002600083333
:1044E00000999B005D580836002D24D0A64224D99F
:1044F0005B46002B2AD001230F279946390029401B
:1045000013D04B4652464046A34012581A420CD193
:10451000072208002240920090400200E3087248FF
:104520003C339B001A502000D8472D090134002D40
:1045300001D0A642E2D8202E01D03400CCE703B04F
:104540003CBC90469946A246AB46F0BD0F232B409B
:1045500007D001214746A1406248C059084200D116
:10456000A8E02B09611C002BE5D08E42E3D90F2275
:1045700013406BD12B0AA11C002BDCD08E42DAD960
:104580000F22134073D12B0BE11C002BD3D08E4292
:10459000D1D90F2213407BD12B0C211D002BCAD067
:1045A0008E42C8D90F2213400FD047460E3A8A4098
:1045B0004C48C059104208D10720CA080140890060
:1045C0008B403C324849920053502B0D611D002B0B
:1045D000B1D08E42AFD90F22134006D047460E3AD3
:1045E0008A404048C05910426DD02B0EA11D002BAF
:1045F000A1D08E429FD90F2213400FD047460E3ACA
:104600008A403848C059104208D10720CA080140E2
:1046100089008B403C323449920053502D0F0734AF
:10462000002D00D187E701234146A3402D4A52586F
:1046300001921A4200D07EE70722E3081440A4004A
:10464000A5403C33284A9B009D5074E747460E3AEC
:104650008A402448C05910428CD10720CA08014022
:1046600089008B403C3220499200535082E74746F4
:104670000E3A8A401B48C059104284D10720CA080C
:10468000014089008B403C321749920053507AE731
:1046900047460E3A8A401348C059104200D07BE783
:1046A0000720CA08014089008B403C320E49920025
:1046B000535071E70721214089008B403C320A4961
:1046C000920053504DE70720CA08014089008B40F3
:1046D0003C3205499200535087E7C046981E00209F
:1046E000004101406423002000400140094A83004A
:1046F00094464022634410B51C68C0006240C02448
:1047000014408022520113431C60034B9C466044BA
:10471000416010BD04C00140004001400A4B8000D0
:104720009C4604236044002901D00C230821002A60
:1047300000D10B00026853400C221A4080235B0119
:10474000184302607047C04604C00140064B800019
:104750009C46604403680901594030231940802376
:104760005B0118430160704704C00140F8B51D00AB
:10477000D0231B061B6814005A1E934130225B4253
:104780001340214AC60894460722024092009140F5
:1047900032001E483C3263449200B60011509B190F
:1047A000002C11D08022920113431960D0231B06E4
:1047B0001E68174FB600BB59002B11D0002D1ED01C
:1047C000BD51002C16D1F8BDC022920113431960CF
:1047D000D0231B061E680E4FB600BB59002BEDD12F
:1047E000002DEED000220B490D20BD5100F036F90E
:1047F000002CE8D001210D2000F0CEF8E3E70549B8
:104800000D2000F00FFADBE70041014000400140BD
:10481000981E0020A14400100123D02283401206DC
:1048200093629361094A8300944640226344196865
:10483000C0004A40C0211140802252011343196038
:10484000034B9C46052360444360704704C001400D
:1048500000400140F8B5EFF3108772B60D4E336893
:10486000002BFCD0BFF35F8F0725CB08C0180123B6
:104870000D40AB401D000478254007D12343037051
:10488000BFF35F8F356087F31088F8BD100001F02B
:1048900021FCC0462C0100D0F8B5CE4647468C46D8
:1048A00080B5EFF3108872B6214D2C68002CFCD037
:1048B000BFF35F8F9A422CD80721012511408D400C
:1048C000D4080419267835421FD0072189460639B5
:1048D00009E04D460F001540AF40D4080419267872
:1048E0003D00374211D001329342F2D201204042C2
:1048F000BFF35F8F00220E4B1A6088F310880028E8
:104900000FDB0CBC90469946F8BD3543257010006E
:10491000EEE7BFF35F8F00232B6088F31088012040
:1049200040426346002BECD0089801F0D3FBC04610
:104930002C0100D0024B18688007C00F7047C0469A
:1049400000C006400021044B044ABFF35F8F02C33E
:104950009342FAD17047C046000100D0800100D0D8
:10496000044A1078431CDBB2172B00D910231370B4
:104970007047C046180B002000B5054B83B00100FE
:10498000009318221F230348FFF786FF03B000BDE2
:1049900060140210A01E002001238340002904D0CF
:1049A000034A1360034A13607047034A1360FBE72E
:1049B00080E200E000E100E080E100E001238340CC
:1049C000014A13607047C04600E200E0084B103017
:1049D0009B688000C358002B07D0064A00209B1A12
:1049E0002F229A424041C0B270470020FCE7C046E7
:1049F00000ED00E01C0B0020024B10309B68800093
:104A0000C058704700ED00E070B50D00EFF3108660
:104A100072B60F4A1368002BFCD0BFF35F8F0D4BAB
:104A200010309B6884001B590B4A934203D09D426F
:104A300001D001F067FB074B9B681D51BFF35F8FEF
:104A4000BFF35F8F0022024B1A6086F3108870BD9F
:104A5000240100D000ED00E0CD010010F8B557466C
:104A60004546DE464E468A46E0B590460700EFF3DF
:104A7000108972B6604A1368002BFCD0BFF35F8FB9
:104A800000205E4B18569B46002800DAA2E05A46EA
:104A900044005B4D2418A4002E19B379103713700D
:104AA000584BBA009B68934699584B1B2F2B41D803
:104AB00001230A009A43D3799446434514D9062723
:104AC000D7571300002F06DA8DE00627DF571A00AC
:104AD000002F00DA87E07B00DB199B00EB18DF7901
:104AE0004745F2D8002A51D1474A63465B1B5B41D8
:104AF0005A43120D454BA11C3380454B6918043BAA
:104B00005B1A1B0543495B0D0B43738063460434FA
:104B1000043B2D195D1B43462D05F3716D0D534666
:104B20002943B180B27101216246B3603A4B3143EF
:104B3000136018E0394B994252D1344B0234338020
:104B4000334B2D19043B5D1B2D05324B6D0D1D4361
:104B5000334B0121B380FF23B3714346F3715346B6
:104B60007580B36031435A46264B9B689950BFF31A
:104B70005F8FBFF35F8F00221F4B1A6089F310888D
:104B80003CBC90469946A246AB46F8BD0627D7578F
:104B9000131D9C46002F2CDB04342D19E024938830
:104BA00024025B051B1563445B1B1B055B0D234344
:104BB0006546341F641B2405164D640D2C439480F8
:104BC0009071B3804346F3715346134AB771326014
:104BD000B360C8E701F096FA5B460020185656E726
:104BE00001F090FAA9E71A1D94461A00BD231B0292
:104BF000DEE7BD231B02DBE7240100D0BB2300203E
:104C00001C0B002000ED00E0AAAA000000A1FFFF9D
:104C10004C0B002000E0FFFF01488047CD01001051
:104C200000BDFFFFF0B54546DE4657464E46E0B5AF
:104C30000D0083B0EFF3108A72B65A4A1368002B46
:104C4000FCD0BFF35F8F1022914681444A46564BF9
:104C500096009B689C59554B98469C4205D0AC42A7
:104C600016D0534FE31B2F2B14D94F4B9B689C51ED
:104C7000BFF35F8FBFF35F8F00224A4B1A608AF346
:104C8000108803B03CBC90469946A246AB46F0BDA6
:104C90001C00EAE7012383409B465A46454B1B68AC
:104CA0001A4000925A46444B1A60BFF35F8FFBF7DD
:104CB000DAFA0190002803D0814501D001F022FAF0
:104CC0000123220006219A43936851569D420AD13E
:104CD00052E04B005B1806219B00FB189868595660
:104CE000A8420FD01A000029F3DA009B002B05D050
:104CF0005A46324B1A602F4B1A60B6E75A462E4B73
:104D00001A60B2E7002921DB4A00501880003D18E4
:104D10008046A8689860E879D8710620285698716E
:104D2000002826DBAD88F81A6D052D15454440197D
:104D3000E0250005400D2D02284398805218204B95
:104D40009200BF181A781970BA71CEE7019900293C
:104D500018D1002A23D0FF3191711A499180184946
:104D60000A789A71184ADB1B5B415A43120D0A708C
:104D7000BBE7BD200002E0E713000029C4DA019A76
:104D8000002A0CD0114A1249D21A083A5002400D9A
:104D9000014399800F4952080A43DA80A5E7444647
:104DA000DDE7C046240100D000ED00E0CD01001099
:104DB0001C0B002000E100E080E100E080E200E068
:104DC000BB23002000BDFFFFAAAA0000560B002055
:104DD00000F0FFFF00F8FFFFF8B5012504000543D0
:104DE000FBF741FAEFF3108672B6214A1368002BE5
:104DF000FCD0BFF35F8F1F4B1F4A2100C91A4941E6
:104E00004A43120D1D4980008F6852B23F58AF428D
:104E10001CD00621595691421CD01221595691425C
:104E200022D01E215956914220D02A2159560320C2
:104E3000914210D0124B19781A70A171BFF35F8F95
:104E400000220B4B1A6086F31088F8BD8B680D4961
:104E50001950EFE700204100091889005B18FF2175
:104E6000997109499980E5E70120F4E70220F2E70A
:104E7000240100D01C0B0020AAAA000000ED00E0D5
:104E8000BB230020CD01001000BDFFFF054B064AEB
:104E90001360064A136053609360D36013615361DB
:104EA000936170478080808000E400E004E400E0CB
:104EB000D02300B51B0601001868074B83B01818F3
:104EC000064B002200930523FFF7E6FC002801DBD8
:104ED0001F23181A03B000BDAC2300207C1402105D
:104EE00070B504000E001500FFF73AFD0100200028
:104EF00000F006F8A680E580BFF35F8F70BDC04666
:104F0000024B9C46614489000160704740000034B8
:104F100083680B4810B5844661446244090112015C
:104F20009A18591854684B6801209C4201D802D045
:104F30000020C0B210BD12680B689A42F9D8F7E79A
:104F4000FFFFFF0F0A4B1968EFF3108072B60A6873
:104F5000002AFCD0BFF35F8F1B68BFF35F8F002276
:104F60001A6080F3108840BF002000217047C046BF
:104F700078230020F8B5454657464E46DE46E0B554
:104F800014000DAA12781D000CAB92461B78026823
:104F900081469046002B13D1977B002F4AD0404684
:104FA0007E001268F619033E921951783B00817316
:104FB000002900D1C173002191705170117003E07C
:104FC0001F005E00F618033E2E4A94464A46926839
:104FD000634494461B010A9A63449A600B9A1C60CE
:104FE0005D60DA60434600221B689B199A705A7014
:104FF0001A7043465B7B9B46002B2BD043463A00FE
:10500000986859465B6898475B4642465B005B443C
:10501000033B1268002814D0D31896195A46B27070
:105020001A78002A00D072701F705A4643465A738D
:10503000BB4511D038003CBC90469946A246AB46D1
:10504000F8BDD31896199F703278002A00D05A7094
:105050005B46337043465F734B462200187D2B003E
:1050600000F048FB041E07D05346002B04D14B46EA
:105070003900186800F0BCFE0E9B002BDAD01C70C3
:10508000D8E7C046FFFFFF0FF0B5DE4657464E4655
:1050900045460023E0B58DB00A936D4B8200D4588D
:1050A00000239B460B9000F0A3FA6268EFF3108593
:1050B00072B61368002BFCD0BFF35F8F23689C4649
:1050C0005B7B9946002B00D16BE0A268614B904658
:1050D0004B441B01984443461E685F6832003B0006
:1050E000121A8B41002B65DD3B0032000B9800F05B
:1050F00001FB0023002208920993002300279A460F
:105100006368BFF35F8F5A461A6085F31088534671
:10511000002B08D10028C6D10DB03CBC9046994662
:10512000A246AB46F0BD0A9B390018024B46184315
:10513000D047626806900791EFF3108872B6564622
:1051400045461368002BFCD0B246A846BFF35F8FDC
:105150000699079A131E49DB194302D02369002BD5
:105160005FD12368DA7B002A07D051008A181968BA
:105170008C4649466244033A51704A46DA73E26803
:105180004B469446013B63441A7801321A705B46E1
:1051900023616368BFF35F8F5A461A6088F31088F3
:1051A00081E70023002208920993002300279A46F2
:1051B0000020A5E7002B01D1002A95D100216046EF
:1051C00000F038FD43461A685B680892099343462D
:1051D0009B689A464346DF68E3684B44013B1B7873
:1051E0000A931B0203432361002089E72369002BF4
:1051F000B7D0089D099E6D1A96412A003300089D7C
:10520000099E9E4218D81BD0594604910121039152
:10521000494602915146019700912000FFF7AAFEEE
:10522000B5E700F0E5F9069A079B12184B41994241
:1052300002D8E9D19042E7D901225242D317E3E7DD
:1052400008999142E0D901225242D317DCE7C046C7
:1052500054230020FFFFFF0F10B5124C6368002B92
:1052600004D00A211048FFF74BFE10BD23000F4A5F
:105270001021206800F000FB032000F0ADF90320AE
:1052800000F0ACFA0A49032000F0EEF9FFF768FBE2
:10529000084B9C46032360442375074B80006060E5
:1052A000DC60DEE7640B002078230020114F001043
:1052B00089500010400000345423002000487047FB
:1052C000640B0020F0B557464546DE464E46E0B535
:1052D00085B00092019310AB1B7800270393002345
:1052E00080469A4643465A68EFF3108972B61368AF
:1052F000002BFCD0BFF35F8F43461D68AC7B002CB6
:105300004FD0660036192B68033E9B195A78AA7352
:10531000002A00D1EA7342469F705F701F70926846
:105320004E4B94460099019AE3181B01634419609F
:105330005A600E9A9A600F9ADA602B689B199F70D8
:105340005F701F706B7B9B46002B42D022001900C0
:10535000A8686B6898475B465B005B44033B2A6820
:1053600000282DD0D31896195A46B2701A78002A00
:1053700000D072701C705B466B735C452AD043464C
:10538000DB681B19013B187843465B68BFF35F8FEE
:105390001F6089F310885346002B2AD10002204356
:1053A00007E05B68BFF35F8F1C6089F31088012002
:1053B000404205B03CBC90469946A246AB46F0BD83
:1053C000D31896199C703278002A00D05A705B4628
:1053D00033706C734346187D009A019B00F08AF984
:1053E00082460028CBD043462100186800F000FD1B
:1053F000C5E7039B002B2FD00E9B0F9900209847E9
:1054000003000B4328D004000D1E0DDA009801990B
:1054100002000B00121BAB41994213D818D0009226
:105420000193039B9A465DE700F0E2F824184D4192
:1054300023002C0000930194A94203D8F1D1009BD2
:105440009842EED901235B42DC1700930194E8E710
:1054500000999142E3D9F5E70020AAE7FFFFFF0F8B
:10546000F8B542680400EFF3108572B61368002B9C
:10547000FCD0BFF35F8FFF232068CEB2427B0B408E
:10548000B24208D007685A00BC46D2186244033AB8
:105490009278002A11D0E268090A94466344013BDD
:1054A0001B78C9B28B420ED000206368BFF35F8FB8
:1054B00000221A6085F31088F8BD23698B42F3D16E
:1054C00022610020F1E7310000F092FCEDE7C046D8
:1054D000002370B584B0114E02930193104B050068
:1054E000009302000B0030000C00FFF7EBFE0028D9
:1054F00004DD20BF01003000FFF7B2FF094A0020A1
:10550000536AA34203D3926A0130AA4201D304B082
:1055100070BD1C1B601E8441E0B2F8E7640B0020E4
:10552000454F001000400540F0B5C64600B5EFF30A
:1055300005833F22134018001038EFF3108772B62E
:105540001F4D2A68002AFCD0BFF35F8F0122110093
:105550008140884644461B494C631B4C2678A44630
:105560003400C440224015D04C6A1849820051587A
:105570008C4217D3164BD25843469E4363461E7047
:10558000BFF35F8F00232B6087F31088002A06D0BB
:10559000904704E0BFF35F8F2A6087F3108804BC54
:1055A0009046F0BD0B4A9B00944663441A681A600B
:1055B000BFF35F8F00232B6087F31088EFE7C046AF
:1055C000280100D000400540BE2300208423002095
:1055D000881D0020D03F054010B50100024A034855
:1055E000FFF738F910BDC046A0140210B823002000
:1055F000044A516A00E01900906A536A9942FAD14C
:105600007047C04600400540164A70B5546A00E035
:105610001C00956A536AA342FAD12A00230080181D
:10562000594105000E008C4202D819D1824217D987
:10563000012201256D42EE1752420A4C636A9342E1
:10564000FCD39A420BD1074B2800996AA94203D395
:1056500005E0996A814202D2596A9142F9D070BD3F
:105660003200EAE70040054070B504000D00EFF39A
:10567000108672B61A4A1368002BFCD0BFF35F8FF6
:10568000002D1BD02000FFF7B7F9164988420AD039
:105690002000FFF7B9F901212000FFF77DF9012370
:1056A000A340114A1360114BA400E550BFF35F8F74
:1056B00000220B4B1A6086F3108870BD0B4BA200C2
:1056C000D5500122A2400A4920000B7893430B7069
:1056D0000449FFF7A7FA00212000FFF75DF9E5E78D
:1056E000280100D02955001038600540881D002091
:1056F000BE230020F0B5D6464F464646324CC0B5D4
:10570000656A00E00D00A66A616AA942FAD1AB425F
:1057100009D806D0012420001CBC90469946A24618
:10572000F0BDB242F6D9EFF3108972B6274C21686A
:105730000029FCD0BFF35F8F0126254986408C46A7
:105740000978244D0F0037438846F9B28A466146EE
:1057500054460C701C49041DA4004E636250840022
:1057600063510D6A002435421AD04D6A00E02500CD
:105770008F6A4C6AAC42FAD1AB4219D801D1BA4215
:1057800016D8C2451DD0104B134A1E625E631F23FC
:1057900018401E3B834013606346424601241A7042
:1057A000BFF35F8F0022094B1A6089F31088B2E7BC
:1057B0000024BFF35F8F0022044B1A6089F3108826
:1057C000A9E70124ECE7C04600400540280100D0CD
:1057D000BE2300208423002080E200E010B5EFF318
:1057E000108472B60A490B68002BFCD0BFF35F8FA0
:1057F00001238340074A0848136202789A430270E3
:10580000BFF35F8F00230B6084F3108810BDC04688
:10581000280100D000400540BE23002070B50600DE
:105820000D00140000291ED0002A1ED07368806865
:10583000984763006A001B195219033B033A316809
:10584000002808D0CB188A189D70117800290ED135
:105850001470280008E08A18CB1894701978002971
:1058600000D051701D70200070BD0800FCE7597019
:1058700028001470F8E7C046F0B5DE4657464E469D
:105880004546E0B58360002389B042600268069116
:105890004373C9B20133059101738373C1730492D9
:1058A000012900D8A4E00A004B1ED9B2931E07912B
:1058B000072B00D8AEE00025CB080393049B564C81
:1058C000591C564B56489B46564B9A46564B9C463F
:1058D000564B0293524663465F465E4662401A400C
:1058E000504B2740FB185A400640534601966646E7
:1058F000434033404B4E0A70B046019E0135B146DD
:10590000C844464673401604360ECE701602120E78
:105910004A721A04120E0B73CA731A021B0E4B75CD
:10592000029B360E5C4063461C40404B120E98466C
:10593000029B47445840634618404B4643445840F6
:10594000039BEDB28E718A747C401831AB42C1D199
:10595000079907230A009A43531CDBB2914247D0B0
:10596000049C5A00A446D218591C6244059DC9B231
:10597000033A51708D423BD94A005218981C624438
:10598000C0B2033A5070854232D942001218D91C75
:105990006244C9B2033A51708D4229D94A00521863
:1059A000181D6244C0B2033A5070854220D94200AB
:1059B0001218591D6244C9B2033A51708D4217D969
:1059C0004A005218981D6244C0B2033A5070854292
:1059D0000ED942001218D91D6244C9B2033A51705F
:1059E0008D4205D94A0052186244033A0833537075
:1059F000FF23069A13405900C918049B9C460023B4
:105A0000614403394B7009B03CBC90469946A246AC
:105A1000AB46F0BD0123A3E7010203047F7F7F7F34
:105A20000506070801010101808080800808080838
:105A300070B50400002907D04B0000685B18033BD9
:105A4000C3185A78002A01D1080070BD5500AD185E
:105A5000033D40190025467845705D702000FFF732
:105A6000DDFE310005002000FFF7E2FF2900020003
:105A70002000FFF7D3FE0100E6E7C046F0B54E4632
:105A80004546DE465746E0B50E0074000168A4198D
:105A900085B0033C01920A190500107800284CD00B
:105AA00043001B18033BCB185F78BC46002F16D170
:105AB000019C002C3ED0EC7B002C04D063001B1911
:105AC000CB18033B5E70EE7300282FD10023537078
:105AD00005B03CBC90469946A246AB46F0BD7A0064
